{
  "contractName": "PROJ",
  "abi": [
    {
      "constant": true,
      "inputs": [],
      "name": "TaskCount",
      "outputs": [
        {
          "name": "",
          "type": "uint256"
        }
      ],
      "payable": false,
      "stateMutability": "view",
      "type": "function",
      "signature": "0xbbba4865"
    }
  ],
  "bytecode": "0x608060405260008055348015601357600080fd5b506099806100226000396000f3fe608060405260043610603e5763ffffffff7c0100000000000000000000000000000000000000000000000000000000600035041663bbba486581146043575b600080fd5b348015604e57600080fd5b5060556067565b60408051918252519081900360200190f35b6000548156fea165627a7a72305820cedee150a8db6201e4c77c152a2bc0867310bac0e68375fe482ed5e99b32888d0029",
  "source": "pragma solidity ^0.5.0;\r\n\r\ncontract PROJ {\r\n    uint256 public TaskCount = 0;\r\n}\r\n",
  "sourcePath": "C:/Users/KIIT/Desktop/COURSES/PROJ/contracts/PROJ.sol",
  "compiler": {
    "name": "solc",
    "version": "0.5.0+commit.1d4f565a.Emscripten.clang"
  },
  "schemaVersion": "3.0.1",
  "updatedAt": "2022-01-16T16:33:55.883Z",
  "devdoc": {
    "methods": {}
  },
  "userdoc": {
    "methods": {}
  }
}